:020000040000FA
:04000000FEEF17F008
:1006000000001950800B226E19501924286E18AE64
:100610000CEF03F00EEF03F00FEF03F028802850EB
:10062000D8B415EF03F017EF03F02AEF03F02828F2
:10063000D8A41DEF03F01FEF03F027EF03F0000E27
:10064000166E000E176E000E186E000E196E188EC4
:1006500032EF03F0000E166E000E176E000E186ECD
:10066000000E196E1D50800B221A1D501D24276E7E
:100670001CAE3DEF03F03FEF03F040EF03F02780A7
:100680002750D8B446EF03F048EF03F05BEF03F0D8
:100690002728D8A44EEF03F050EF03F058EF03F0F3
:1006A000000E1A6E000E1B6E000E1C6E000E1D6EEC
:1006B0001C8E63EF03F0000E1A6E000E1B6E000E10
:1006C0001C6E000E1D6E2750D8B469EF03F06BEF5F
:1006D00003F073EF03F02850D8A471EF03F073EF29
:1006E00003F07DEF03F0000E166E000E176E000E85
:1006F000186E000E196E13EF05F01C501602F3CFA2
:100700002DF0F4CF2EF02D50236E246A256A266A30
:100710002E50296E2A6A2B6A2C6A1B501702F3CFBF
:100720002DF0F4CF2EF02D502326000E242225226A
:1007300026222E502926000E2A222B222C221A5045
:100740001802F3CF2DF0F4CF2EF02D502326000EFB
:100750002422252226222E502926000E2A222B2250
:100760002C2225C026F024C025F023C024F0236AC3
:100770001A501702F3CF2DF0F4CF2EF02D50232670
:100780002E502422000E2522000E26221B50160277
:10079000F3CF2DF0F4CF2EF02D5023262E5024220F
:1007A000000E2522000E262225C026F024C025F0AA
:1007B00023C024F0236A1A501602F3CF2DF0F4CF91
:1007C0002EF02D5023262E502422000E2522000E1E
:1007D00026221C501702F3CF2DF0F4CF2EF02D500F
:1007E00029262E502A22000E2B22000E2C221B50CE
:1007F0001802F3CF2DF0F4CF2EF02D5029262E50D5
:100800002A22000E2B22000E2C221C501802F3CF9D
:100810002DF0F4CF2EF02D501E6E2E501F6E206A3C
:10082000216A20C021F01FC020F01EC01FF01E6AE8
:100830001E5029261F502A2220502B2221502C22C4
:1008400023C01EF024C01FF025C020F026C021F0D8
:10085000190E30EF04F0D890213220321F321E32B0
:10086000E82E2BEF04F01E5029261F502A2220507C
:100870002B2221502C2225C026F024C025F023C095
:1008800024F0236A275028C01EF01F6A1E26000E7F
:100890001F22820E1E242D6EFF0E1F202E6E66EF6D
:1008A00004F0D89029362A362B362C3626AE5BEF4C
:1008B00004F05DEF04F05EEF04F02980D890233659
:1008C0002436253626362D06D8A02E062BAE6BEF05
:1008D00004F06DEF04F051EF04F0276A26AE73EFD9
:1008E00004F075EF04F099EF04F0FF0E23141E6E70
:1008F000FF0E24141F6EFF0E2514206E7F0E26148B
:10090000216E1E501F1020102110D8B48AEF04F061
:100910008CEF04F090EF04F0010E276E99EF04F0D5
:1009200029A095EF04F097EF04F099EF04F08CEF15
:1009300004F02750D8B49FEF04F0A1EF04F0C5EF06
:1009400004F0010E2926000E2A222B222C222CA094
:10095000ACEF04F0AEEF04F0C5EF04F029C01EF0D8
:100960002AC01FF02BC020F02CC021F021342132EE
:1009700020321F321E321EC029F01FC02AF020C0B4
:100980002BF021C02CF02D4A2E2A2EBED0EF04F0E1
:100990002E5008E12D28D8A0D0EF04F0D2EF04F0BB
:1009A000DCEF04F0000E296E000E2A6E800E2B6E16
:1009B0007F0E2C6E09EF05F02EBEE9EF04F02E50ED
:1009C00006E12D04D8B0E7EF04F0E9EF04F0F4EF0E
:1009D00004F0000E296E000E2A6E000E2B6E000E23
:1009E0002C6E226A09EF05F02DC028F0FF0E2916A3
:1009F000FF0E2A167F0E2B16000E2C1628A003EFD2
:100A000005F005EF05F006EF05F02B8ED8902830A5
:100A10002C6E22502C1229C016F02AC017F02BC0C1
:100A200018F02CC019F012003250800B3F6E32507B
:100A30003224466E31AE1FEF05F021EF05F022EFB4
:100A400005F046804650D8B428EF05F02AEF05F0AF
:100A50003EEF05F04628D8A430EF05F032EF05F060
:100A60003AEF05F0000E2F6E000E306E000E316E64
:100A7000000E326E318E326A46EF05F0000E2F6E98
:100A8000000E306E000E316E000E326E3650800B4E
:100A90003F1A36503624476E35AE51EF05F053EF0E
:100AA00005F054EF05F047804750D8B45AEF05F0F1
:100AB0005CEF05F070EF05F04728D8A462EF05F071
:100AC00064EF05F06CEF05F0000E336E000E346E2F
:100AD000000E356E000E366E358E366A78EF05F0F4
:100AE000000E336E000E346E000E356E000E366E44
:100AF0003350341035103610D8A481EF05F083EF51
:100B000005F09BEF05F0000E2F6E000E306E000E0C
:100B1000316E000E326E800E31127F0E32123F5057
:100B200032122FC02FF030C030F031C031F032C05F
:100B300032F0DBEF06F04650D8A4A1EF05F0A3EFAA
:100B400005F0ADEF05F0000E2F6E000E306E000EBA
:100B5000316E000E326EDBEF06F0475046C037F0C4
:100B6000386A375E000E385A7F0E3724406E000E0A
:100B70003820416E2FC03BF030C03CF031C03DF01A
:100B800032C03EF0000E2F6E000E306E000E316E41
:100B9000000E326E000E426E000E436E000E446E6A
:100BA000000E456E476A0DEF06F04750D8B4DBEFF4
:100BB00005F0DDEF05F0F4EF05F0D8903B363C365C
:100BC0003D363E36D8902F3630363136323645AE49
:100BD000ECEF05F0EEEF05F0EFEF05F02F80D89089
:100BE000423643364436453633503B5C34503C58ED
:100BF00035503D5836503E58D8A001EF06F003EF6F
:100C000006F00CEF06F0458C33503B5E34503C5AF6
:100C100035503D5A36503E5A472A190E476413EF55
:100C200006F015EF06F0D5EF05F03B503C103D10F7
:100C30003E10D8B41EEF06F020EF06F038EF06F0B5
:100C4000428038EF06F0D8902F36303631363236C3
:100C500045AE2DEF06F02FEF06F030EF06F02F80B7
:100C6000D89042364336443645364006D8A0410631
:100C700031AE3DEF06F03FEF06F023EF06F0476A96
:100C800045AE45EF06F047EF06F06BEF06F0FF0EBE
:100C90004214376EFF0E4314386EFF0E4414396E43
:100CA0007F0E45143A6E3750381039103A10D8B4C8
:100CB0005CEF06F05EEF06F062EF06F0010E476EA5
:100CC0006BEF06F02FA067EF06F069EF06F06BEF11
:100CD00006F05EEF06F04750D8B471EF06F073EF00
:100CE00006F097EF06F0010E2F26000E302231227B
:100CF000322232A07EEF06F080EF06F097EF06F08A
:100D00002FC037F030C038F031C039F032C03AF07F
:100D10003A343A3239323832373237C02FF038C0AD
:100D200030F039C031F03AC032F0404A412A41BE79
:100D3000A2EF06F0415008E14028D8A0A2EF06F04B
:100D4000A4EF06F0AFEF06F0000E416E4068000E13
:100D50002F6E000E306E000E316E000E326E41BEF0
:100D6000BCEF06F0415006E14004D8B0BAEF06F0FF
:100D7000BCEF06F0C9EF06F0000E416E000E406EAB
:100D8000000E2F6E000E306E000E316E000E326EB1
:100D90003F6A40C046F046A0D0EF06F0D2EF06F022
:100DA000D5EF06F0318ED6EF06F0319ED890463062
:100DB000326E8FEF05F01200106E1050D8B4E3EFD2
:100DC00006F0E5EF06F007EF07F00BBEECEF06F0DC
:100DD000EAEF06F007EF07F008C00CF009C00DF0CD
:100DE0000AC00EF00BC00FF00C1E0D1E0E1E0F1EC3
:100DF0000C2A000E0D220E220F220CC012F00DC084
:100E000013F00EC014F00FC015F00FEF07F008C07C
:100E100012F009C013F00AC014F00BC015F008500E
:100E200009100A100B10D8A418EF07F01AEF07F0FA
:100E300024EF07F0000E086E000E096E000E0A6E19
:100E4000000E0B6EB5EF07F0960E116E2EEF07F049
:100E5000112AD8901532143213321232000E1214A5
:100E60000C6E000E13140D6E000E14140E6EFE0E9A
:100E700015140F6E0C500D100E100F10D8A443EF68
:100E800007F045EF07F028EF07F053EF07F0112ABE
:100E9000010E1226000E132214221522D8901532AC
:100EA000143213321232000E12140C6E000E131490
:100EB0000D6E000E14140E6EFF0E15140F6E0C50F6
:100EC0000D100E100F10D8A468EF07F06AEF07F0AE
:100ED00047EF07F072EF07F01106D890123613367D
:100EE0001436153614BE77EF07F079EF07F081EF6F
:100EF00007F0020E11607FEF07F081EF07F06CEF53
:100F000007F011B086EF07F088EF07F089EF07F0E0
:100F1000149ED890113211C00CF00D6A0E6A0F6A3F
:100F20000CC00FF00E6A0D6A0C6A0C5012120D50B4
:100F300013120E5014120F5015121050D8B4A3EF04
:100F400007F0A5EF07F0ADEF07F00BBEACEF07F031
:100F5000AAEF07F0ADEF07F0158E12C008F013C02E
:100F600009F014C00AF015C00BF012004A344B34DB
:100F7000516E5150D8A4BFEF07F0C1EF07F0CBEF8F
:100F800007F0000E486E000E496E000E4A6E000E0D
:100F90004B6E38EF08F048C04CF049C04DF04AC0E5
:100FA0004EF04BC04FF0200EDBEF07F0D8904F32E1
:100FB0004E324D324C32E82ED6EF07F04C50506E88
:100FC0004A8EFF0E4816FF0E4916FF0E4A16000EF7
:100FD0004B16960E515E51BEF2EF07F0F0EF07F0A0
:100FE00008EF08F05150800A970FD8B0FAEF07F0D9
:100FF000FCEF07F0FEEF07F0C1EF07F0D8904B329F
:101000004A3249324832513EFEEF07F020EF08F0F5
:101010001F0E51640EEF08F010EF08F018EF08F003
:10102000C1EF07F0D890483649364A364B3651065C
:101030005150D8A41EEF08F020EF08F012EF08F08E
:101040005050D8B426EF08F028EF08F030EF08F041
:101050004B1E4A1E491E486C000E49224A224B2252
:1010600048C048F049C049F04AC04AF04BC04BF074
:101070001200060EC2EC09F001C056F002C057F093
:1010800056C008F057C009F0000E09BEFF0E0A6EE8
:101090000B6E010EDCEC06F008C016F009C017F06C
:1010A0000AC018F00BC019F0210E1A6E230E1B6E29
:1010B000A00E1C6E3B0E1D6E01EC03F016C052F02C
:1010C00017C053F018C054F019C055F0000E336E1D
:1010D000000E346E200E356E410E366E000E1A6E06
:1010E000000E1B6E7A0E1C6E440E1D6E52C016F062
:1010F00053C017F054C018F055C019F001EC03F0BC
:1011000016C02FF017C030F018C031F019C032F0FF
:1011100014EC05F02FC048F030C049F031C04AF05F
:1011200032C04BF0B6EC07F048C058F049C059F057
:10113000000E066E400E056E580E076E020E086E0B
:10114000F8EC08F01200000E026E000E016E67EC63
:1011500009F0116E0E0E1118D8A4B1EF08F0B3EF1C
:1011600008F0C3EF08F05DBEC1EF08F05D5007E185
:10117000060E5C5CD8B0BFEF08F0C1EF08F0C3EF1B
:1011800008F05C4A5D2A0D0E1118D8A4CAEF08F0C9
:10119000CCEF08F0DCEF08F05DBED7EF08F05D5053
:1011A00008E15C04D8A0D7EF08F0D9EF08F0DCEF35
:1011B00008F05C06D8A05D060B0E1118D8A4E3EF6A
:1011C00008F0E5EF08F0E9EF08F0000E5D6E070E9D
:1011D0005C6E5C509BEC09F0106E000E066E200EEB
:1011E000056E100E076E010E086EF8EC08F0120086
:1011F0000F01436B446B05C001F006C002F0E5EC43
:1012000009F008C045FF460E0C6E0F0E0D6E000E65
:101210000F6E000E0E6E1BEF09F007500E24D96EF4
:10122000DA6A0E500C24E16E0F500D20E26EDFCF13
:10123000E7FF0E4A0F2A0850096E0A6A09500E5C31
:101240000F50800A0B6E0A50800A0B58D8A02BEF63
:1012500009F02DEF09F00DEF09F00F0140871200A2
:10126000AE0E336E470E346E250E356E410E366E61
:10127000040EC2EC09F001C008F002C009F00A6ACD
:101280000B6A000EDCEC06F008C02FF009C030F04D
:101290000AC031F00BC032F014EC05F02FC048F05A
:1012A00030C049F031C04AF032C04BF0B6EC07F024
:1012B00048C052F049C053F0000E066E100E056E85
:1012C000520E076E020E086EF8EC08F01200015084
:1012D0000210D8A46EEF09F070EF09F087EF09F063
:1012E00082500F0B0F0AD8B478EF09F07AEF09F0AB
:1012F0008BEF09F05A505B10D8A481EF09F083EF0F
:1013000009F08BEF09F0000E5B6E010E5A6E8250F1
:101310000F0B9AEF09F082500F0B0F0AD8A493EF2E
:1013200009F095EF09F099EF09F0000E5B6E000EE1
:101330005A6E0F0E1200016E0150D8A4A2EF09F0F0
:10134000A4EF09F0A7EF09F04E0EC1EF09F0060E69
:101350000118D8A4AEEF09F0B0EF09F0B3EF09F02F
:10136000520EC1EF09F0070E0118D8A4BAEF09F028
:10137000BCEF09F0BFEF09F0430EC1EF09F00150D7
:10138000300F1200076E07C003F0D8900336D890D4
:101390000336C250C30B0310C26EC282C2B2D3EF77
:1013A00009F0D5EF09F0CEEF09F0C350C4CF03F038
:1013B000046A03C004F0036A0310056E0450066E4D
:1013C00005C001F006C002F0120001C003F0070ED4
:1013D0000316050E046ED8900336042EEBEF09F0C9
:1013E00003500F01426F01C003F002C004F0D89017
:1013F00004320332D89004320332D89004320332DC
:101400000350416F1200939493861F0E6F166F8ED8
:10141000800E6E18D8A40FEF0AF011EF0AF008EF53
:101420000AF0776AE10E706E1B0E716E030E726E1B
:10143000010E0D01D46F1F0E6F166F50606A1200FF
:101440004AEC0AF0A3EC08F000D000D0000030EC29
:1014500009F000D000D0000039EC08F000D000D036
:10146000000022EF0AF0FEEF17F0C08EC09AC0888D
:10147000C096C090C082C094C292C19AC198C46AFA
:10148000C36AC28012005D6A5C6A5B6A5A6A0001C4
:1014900020EF0AF035EC0AF003EC0AF051EC0AF008
:0A14A000120094500F09946E120020
:042FFC0043EF0AF0A5
:020000040020DA
:08000000FFFFFFFFFFFFFFFF00
:020000040030CA
:0E000000FF071F1FFF8285FF0FC00FE00F409C
:00000001FF
