:020000040000FA
:0400000007EF00F016
:0A00080044827BED07F030EF08F0B2
:1006000000001950800B266E195019242D6E18AE5B
:100610000CEF03F00EEF03F00FEF03F02D802D50E1
:10062000D8B415EF03F017EF03F02BEF03F02D28EC
:10063000D8A41DEF03F01FEF03F027EF03F0000E27
:10064000166E000E176E000E186E000E196E188EC4
:10065000196A33EF03F0000E166E000E176E000ECF
:10066000186E000E196E1D50800B261A1D501D2489
:100670002E6E1CAE3EEF03F040EF03F041EF03F0AF
:100680002E802E50D8B447EF03F049EF03F05DEF12
:1006900003F02E28D8A44FEF03F051EF03F059EFE9
:1006A00003F0000E1A6E000E1B6E000E1C6E000E84
:1006B0001D6E1C8E1D6A65EF03F0000E1A6E000E93
:1006C0001B6E000E1C6E000E1D6E1A501B101C10AF
:1006D0001D10D8A46EEF03F070EF03F088EF03F065
:1006E000000E166E000E176E000E186E000E196EBC
:1006F000800E18127F0E19122650191216C016F00D
:1007000017C017F018C018F019C019F0C8EF04F09E
:100710002D50D8A48EEF03F090EF03F09AEF03F082
:10072000000E166E000E176E000E186E000E196E7B
:10073000C8EF04F02E502DC01EF01F6A1E5E000E82
:100740001F5A7F0E1E24276E000E1F20286E16C013
:1007500022F017C023F018C024F019C025F0000EB5
:10076000166E000E176E000E186E000E196E000E3B
:10077000296E000E2A6E000E2B6E000E2C6E2E6A55
:10078000FAEF03F02E50D8B4C8EF03F0CAEF03F02D
:10079000E1EF03F0D8902236233624362536D89060
:1007A00016361736183619362CAED9EF03F0DBEFB4
:1007B00003F0DCEF03F01680D89029362A362B366A
:1007C0002C361A50225C1B5023581C5024581D50A4
:1007D0002558D8A0EEEF03F0F0EF03F0F9EF03F0A7
:1007E0002C8C1A50225E1B50235A1C50245A1D5028
:1007F000255A2E2A190E2E6400EF04F002EF04F0A1
:10080000C2EF03F02250231024102510D8B40BEFB0
:1008100004F00DEF04F025EF04F0298025EF04F03B
:10082000D89016361736183619362CAE1AEF04F053
:100830001CEF04F01DEF04F01680D89029362A36FC
:100840002B362C362706D8A0280618AE2AEF04F03F
:100850002CEF04F010EF04F02E6A2CAE32EF04F00F
:1008600034EF04F058EF04F0FF0E29141E6EFF0E53
:100870002A141F6EFF0E2B14206E7F0E2C14216E77
:100880001E501F1020102110D8B449EF04F04BEF78
:1008900004F04FEF04F0010E2E6E58EF04F016A096
:1008A00054EF04F056EF04F058EF04F04BEF04F06F
:1008B0002E50D8B45EEF04F060EF04F084EF04F043
:1008C000010E1626000E17221822192219A06BEF0E
:1008D00004F06DEF04F084EF04F016C01EF017C0B2
:1008E0001FF018C020F019C021F02134213220322D
:1008F0001F321E321EC016F01FC017F020C018F0A5
:1009000021C019F0274A282A28BE8FEF04F028506A
:1009100008E12728D8A08FEF04F091EF04F09CEFB6
:1009200004F0000E286E2768000E166E000E176E7B
:10093000000E186E000E196E28BEA9EF04F02850A4
:1009400006E12704D8B0A7EF04F0A9EF04F0B6EF52
:1009500004F0000E286E000E276E000E166E000EBC
:10096000176E000E186E000E196E266A27C02DF045
:100970002DA0BDEF04F0BFEF04F0C2EF04F0188E1D
:10098000C3EF04F0189ED8902D30196E7CEF03F061
:100990001200106E1050D8B4D0EF04F0D2EF04F073
:1009A000F4EF04F00BBED9EF04F0D7EF04F0F4EF4E
:1009B00004F008C00CF009C00DF00AC00EF00BC026
:1009C0000FF00C1E0D1E0E1E0F1E0C2A000E0D2207
:1009D0000E220F220CC012F00DC013F00EC014F046
:1009E0000FC015F0FCEF04F008C012F009C013F0BE
:1009F0000AC014F00BC015F0085009100A100B10B3
:100A0000D8A405EF05F007EF05F011EF05F0000E93
:100A1000086E000E096E000E0A6E000E0B6EA2EF3D
:100A200005F0960E116E1BEF05F0112AD8901532C5
:100A3000143213321232000E12140C6E000E131404
:100A40000D6E000E14140E6EFE0E15140F6E0C506B
:100A50000D100E100F10D8A430EF05F032EF05F096
:100A600015EF05F040EF05F0112A010E1226000ED9
:100A7000132214221522D890153214321332123256
:100A8000000E12140C6E000E13140D6E000E1414D2
:100A90000E6EFF0E15140F6E0C500D100E100F1071
:100AA000D8A455EF05F057EF05F034EF05F05FEFF0
:100AB00005F01106D890123613361436153614BECA
:100AC00064EF05F066EF05F06EEF05F0020E1160C1
:100AD0006CEF05F06EEF05F059EF05F011B073EF14
:100AE00005F075EF05F076EF05F0149ED890113201
:100AF00011C00CF00D6A0E6A0F6A0CC00FF00E6A7E
:100B00000D6A0C6A0C5012120D5013120E50141272
:100B10000F5015121050D8B490EF05F092EF05F079
:100B20009AEF05F00BBE99EF05F097EF05F09AEFFD
:100B300005F0158E12C008F013C009F014C00AF0B9
:100B400015C00BF01200000E026E000E016E47EC95
:100B500007F0106E0E0E1018D8A4B1EF05F0B3EF29
:100B600005F0BDEF05F0000E3F6E010E3E6E000E6B
:100B7000436E010E426EE1EF05F00D0E1018D8A481
:100B8000C4EF05F0C6EF05F0D0EF05F0000E3F6EA4
:100B9000020E3E6E000E436E000E426EE1EF05F057
:100BA0000B0E1018D8A4D7EF05F0D9EF05F0E1EF40
:100BB00005F0000E3F6E030E3E6E000E436E020EF9
:100BC000426E3E043F10D8A4E8EF05F0EAEF05F0CE
:100BD0000FEF06F041BEF5EF05F0415008E140048B
:100BE000D8A0F5EF05F0F7EF05F00DEF06F081A0C6
:100BF000FCEF05F0FFEF05F0818000EF06F081903B
:100C000081A205EF06F008EF06F0818209EF06F0F9
:100C10008192000E416E000E406E819C819E020EFC
:100C20003E183F10D8A417EF06F019EF06F01DEF9D
:100C300006F081908192819C819E030E3E183F10A8
:100C4000D8A425EF06F027EF06F04CEF06F041BEE2
:100C500032EF06F0415008E14004D8A032EF06F030
:100C600034EF06F04AEF06F081AC39EF06F03CEFC6
:100C700006F0818C3DEF06F0819C81AE42EF06F0DC
:100C800045EF06F0818E46EF06F0819E000E416E24
:100C9000000E406E81908192000E066E500E056E21
:100CA000420E076E020E086EDAEC06F012003134C6
:100CB0003234386E3850D8A460EF06F062EF06F098
:100CC0006CEF06F0000E2F6E000E306E000E316ECF
:100CD000000E326ED9EF06F02FC033F030C034F082
:100CE00031C035F032C036F0200E7CEF06F0D890DF
:100CF0003632353234323332E82E77EF06F0335065
:100D0000376E318EFF0E2F16FF0E3016FF0E311686
:100D1000000E3216960E385E38BE93EF06F091EF55
:100D200006F0A9EF06F03850800A970FD8B09BEF75
:100D300006F09DEF06F09FEF06F062EF06F0D89008
:100D40003232313230322F32383E9FEF06F0C1EF6F
:100D500006F01F0E3864AFEF06F0B1EF06F0B9EF02
:100D600006F062EF06F0D8902F3630363136323644
:100D700038063850D8A4BFEF06F0C1EF06F0B3EF45
:100D800006F03750D8B4C7EF06F0C9EF06F0D1EF40
:100D900006F0321E311E301E2F6C000E3022312222
:100DA00032222FC02FF030C030F031C031F032C0CD
:100DB00032F012000F01436B446B05C001F006C016
:100DC00002F0C3EC07F008C045FF460E0C6E0F0E94
:100DD0000D6E000E0F6E000E0E6EFDEF06F007504A
:100DE0000E24D96EDA6A0E500C24E16E0F500D20DD
:100DF000E26EDFCFE7FF0E4A0F2A0850096E0A6A3B
:100E000009500E5C0F50800A0B6E0A50800A0B5876
:100E1000D8A00DEF07F00FEF07F0EFEF06F00F018E
:100E200040871200140E1A6EAE0E1B6E230E1C6E3F
:100E3000410E1D6E040EA0EC07F001C008F002C0C8
:100E400009F00A6A0B6A000EC9EC04F008C016F03B
:100E500009C017F00AC018F00BC019F001EC03F03C
:100E600016C02FF017C030F018C031F019C032F0A2
:100E700057EC06F02F50396E000E066E300E056EE0
:100E8000390E076E010E086EDAEC06F01200015002
:100E90000210D8A44EEF07F050EF07F067EF07F00D
:100EA00082500F0B0F0AD8B458EF07F05AEF07F033
:100EB0006BEF07F03C503D10D8A461EF07F063EFF3
:100EC00007F06BEF07F0000E3D6E010E3C6E825096
:100ED0000F0B7AEF07F082500F0B0F0AD8A473EFB5
:100EE00007F075EF07F079EF07F0000E3D6E000E8A
:100EF0003C6E0F0E12000600F2A481EF07F083EFA4
:100F000007F09EEF07F03A4A3B2A080ED624D66E29
:100F1000000ED720D76E200E3A1807E14E0E3B1870
:100F2000D8A495EF07F097EF07F09DEF07F0404A40
:100F3000412A000E3B6E000E3A6EF294449211006C
:100F4000076E07C003F0D8900336D8900336C2501E
:100F5000C30B0310C26EC282C2B2B1EF07F0B3EF8F
:100F600007F0ACEF07F0C350C4CF03F0046A03C02E
:100F700004F0036A0310056E0450066E05C001F00C
:100F800006C002F0120001C003F0070E0316050EA2
:100F9000046ED8900336042EC9EF07F003500F01FA
:100FA000426F01C003F002C004F0D8900432033253
:100FB000D89004320332D890043203320350416F88
:100FC0001200939493861F0E6F166F8E800E6E180C
:100FD000D8A4EDEF07F0EFEF07F0E6EF07F0776A40
:100FE000E10E706E1B0E716E030E726E010E0D011E
:100FF000D46F1F0E6F166F50606A12003BEC08F042
:1010000012EC07F0100EE82EFED700D0A3EC05F08E
:10101000100EE82EFED700D000EF08F007EF00F02A
:1010200093909392939C939E816AF28EF28CF28AB3
:10103000F294D58ED58CD59AD586000ED76E060E35
:10104000D66E1200C08EC09AC088C096C090C08272
:10105000C094C292C19AC198C46AC36AC280120085
:1010600000EE3AF00A0EEE6AE806FDE14490449282
:101070000001FEEF07F022EC08F0E1EC07F046EC8F
:1010800008F04CEC08F010EC08F0120093909392EA
:10109000939C939E816A120094500F09946E1200E3
:020000040020DA
:08000000FFFFFFFFFFFFFFFF00
:020000040030CA
:0E000000FF071F1FFF8285FF0FC00FE00F409C
:00000001FF
