:020000040000FA
:0400000007EF00F016
:100008001B82C1ED02F088EF03F061EC03F0E30E10
:10001800036E2F0E046E800E056EE6EC02F0140ED1
:10002800096E160E0A6E130E0B6E78EC02F0200E97
:1000380014181510D8A423EF00F025EF00F02AEFCC
:1000480000F0C30E0F6E16507CEC03F0100E14185F
:100058001510D8A432EF00F034EF00F052EF00F0A2
:10006800C00E0F6E16C001F0026A000E046E0A0E72
:10007800036E6DEC01F00150300F7CEC03F0C10E03
:100088000F6E16C009F00A6A000E0C6E0A0E0B6E8F
:10009800CEEC01F00950300F7CEC03F0400E141840
:1000A8001510D8A45AEF00F05CEF00F07AEF00F0DA
:1000B800C50E0F6E16C001F0026A000E046E0A0E1D
:1000C800036E6DEC01F00150300F7CEC03F0C60EAE
:1000D8000F6E16C009F00A6A000E0C6E0A0E0B6E3F
:1000E800CEEC01F00950300F7CEC03F0300E141800
:1000F8001510D8A482EF00F084EF00F0E0EF00F0D4
:10010800C80E0F6E16503C0DF3CF01F0F4CF02F07D
:10011800030E046EE80E036E6DEC01F00150300F13
:100128007CEC03F0C90E0F6E000E046E640E036EB5
:1001380016503C0DF3CF01F0F4CF02F06DEC01F056
:1001480001C009F002C00AF0000E0C6E0A0E0B6E18
:10015800CEEC01F00950300F7CEC03F0CA0E0F6EA4
:10016800000E046E0A0E036E16503C0DF3CF01F01C
:10017800F4CF02F06DEC01F001C009F002C00AF002
:10018800000E0C6E0A0E0B6ECEEC01F00950300F0B
:100198007CEC03F0CB0E0F6E16503C0DF3CF09F03C
:1001A800F4CF0AF0000E0C6E0A0E0B6ECEEC01F0C6
:1001B8000950300F7CEC03F0500E14181510D8A419
:1001C800E8EF00F0EAEF00F06BEF01F01604D8A4B6
:1001D800F0EF00F0F2EF00F01FEF01F0F30E036E06
:1001E8002F0E046ECD0E056EE6EC02F0819C819E0A
:1001F8001ABE07EF01F01A5008E11904D8A007EF5A
:1002080001F009EF01F01FEF01F081A00EEF01F0FE
:1002180011EF01F0818012EF01F0819081A217EFB8
:1002280001F01AEF01F081821BEF01F08192000EBC
:100238001A6E000E196E1650D8A425EF01F027EF9C
:1002480001F033EF01F0FB0E036E2F0E046ECD0E9E
:10025800056EE6EC02F081908192819C819E020EEF
:100268001618D8A43AEF01F03CEF01F06BEF01F05B
:10027800F70E036E2F0E046ECD0E056EE6EC02F03F
:10028800819081921ABE51EF01F01A5008E11904C9
:10029800D8A051EF01F053EF01F06BEF01F081AC02
:1002A80058EF01F05BEF01F0818C5CEF01F0819C6D
:1002B80081AE61EF01F064EF01F0818E65EF01F02E
:1002C800819E000E1A6E000E196E6BEF01F007EF9B
:1002D80000F0066A04BE75EF01F073EF01F07BEFE2
:1002E80001F0036C041ED8B0042A010E066E02BE8B
:1002F80082EF01F080EF01F088EF01F0016C021E3F
:10030800D8B0022A010E061A000E086E000E076EFB
:1003180003500410D8B493EF01F095EF01F0BDEF4E
:1003280001F0010E056E9DEF01F0D89003360436FA
:10033800052A04AEA2EF01F0A4EF01F099EF01F055
:10034800D890073608360350015C04500258D8A0EC
:10035800B0EF01F0B2EF01F0B7EF01F00350015E2A
:100368000450025A0780D89004320332052EA4EFB5
:1003780001F00650D8B4C3EF01F0C5EF01F0C9EFA2
:1003880001F0076C081ED8B0082A07C001F008C0A1
:1003980002F012000E6A0ABED6EF01F0D4EF01F0A7
:1003A800DCEF01F0096C0A1ED8B00A2A010E0E6EA5
:1003B8000CBEE3EF01F0E1EF01F0E7EF01F00B6CA9
:1003C8000C1ED8B00C2A0B500C10D8B4EEEF01F06C
:1003D800F0EF01F014EF02F0010E0D6EF8EF01F0EE
:1003E800D8900B360C360D2A0CAEFDEF01F0FFEF5E
:1003F80001F0F4EF01F00B50095C0C500A58D8A03A
:1004080008EF02F00AEF02F00EEF02F00B50095E5F
:100418000C500A5AD8900C320B320D2EFFEF01F017
:100428000E50D8B41AEF02F01CEF02F020EF02F0E1
:10043800096C0A1ED8B00A2A09C009F00AC00AF0D5
:100448001200956A9450F80B946E8290C30E036E56
:10045800CD0EE82EFED7032EFCD70000000E016E4D
:10046800330E27EC03F01B0E036E9E0EE82EFED70C
:10047800032EFCD700D0000E016E330E27EC03F0DC
:10048800A60EE82EFED700D0000E016E330E27EC24
:1004980003F000D000D00000000E016E020E27EC21
:1004A80003F0A60EE82EFED700D0000E016E380E1F
:1004B80027EC03F0A60EE82EFED700D0000E016E42
:1004C800010E27EC03F0040E036E3E0EE82EFED755
:1004D800032EFCD7000E016E0C0E27EC03F0A60EBF
:1004E800E82EFED700D0120060AE7DEF02F07FEF5D
:1004F80002F0BCEF02F044EC03F00950D96EDA6A5E
:1005080001C0DEFF02C0DDFF0B50D96EDA6A65CF8D
:10051800DFFF660E0F6E0F0E106E000E126E000ECD
:10052800116EA5EF02F011500F24D96E1250102051
:10053800DA6E0A501124E16EE26ADFCFE7FF114A52
:10054800122A0B50D96EDA6ADF500C6E0D6A0C5005
:10055800115C1250800A0E6E0D50800A0E58D8A0F9
:10056800B8EF02F0BAEF02F097EF02F0609EA490A5
:100578000B50D96EDA6ADF6A12000600F2A4C7EFE0
:1005880002F0C9EF02F0E4EF02F0174A182A080E49
:10059800D624D66E000ED720D76E200E171807E186
:1005A8004E0E1818D8A4DBEF02F0DDEF02F0E3EFEF
:1005B80002F0194A1A2A000E186E000E176EF294ED
:1005C8001B921100000E016E055027EC03F0F9EFA5
:1005D80002F0010E016E03C0F6FF04C0F7FF080029
:1005E800F55027EC03F0034A042A03C0F6FF04C0C1
:1005F800F7FF0800F5500009D8A405EF03F007EF4E
:1006080003F0EDEF02F01200939493861F0E6F161D
:100618006F8E800E6E18D8A414EF03F016EF03F057
:100628000DEF03F0776AE10E706E1B0E716E030E0C
:10063800726E010E0D01D46F1F0E6F166F50606A37
:10064800608A608C1200026E01B02DEF03F030EF6B
:1006580003F0828231EF03F0829202C083FF82842A
:100668008294958E828082928284829483BE3FEFA8
:1006780003F041EF03F038EF03F08290959E1200EB
:100688006150036E046AD89003360436D890033656
:100698000436D890033604366238E842070B070B55
:1006A800056E066A03500510076E04500610086EA2
:1006B80007C001F008C002F012009390939293983B
:1006C800939A939C939E816A25EC02F008EC03F0C0
:1006D8006FEC03F01200F28EF28CF28AF294D58E4F
:1006E800D58CD59AD586000ED76E060ED66E12001A
:1006F800106E000E016E0F5027EC03F0010E016E14
:10070800105027EC03F012001A6A196A186A176A5F
:0E0718001B901B92000EF86E000109EF00F01E
:102FE200005350204720544D2052504D2020494E2E
:0E2FF200003C2D2D002D2D3E004F46460000C8
:020000040020DA
:08000000FFFFFFFFFFFFFFFF00
:020000040030CA
:0E000000FF071F1FFF8285FF0FC00FE00F409C
:00000001FF
